:100000000C945D000C9485000C9485000C94850084
:100010000C9485000C9485000C9485000C9485004C
:100020000C9485000C9485000C9485000C9485003C
:100030000C9485000C9485000C9485000C9485002C
:100040000C94FB020C9485000C9447010C948A01DB
:100050000C9485000C9485000C9485000C9485000C
:100060000C9485000C94850000000007000201003C
:100070000003040600000000000000000102040864
:100080001020408001020408102001020408102002
:10009000040404040404040402020202020203032E
:1000A0000303030300000000250028002B000000CC
:1000B0000000240027002A00490211241FBECFEFB0
:1000C000D8E0DEBFCDBF11E0A0E0B1E0E2E1F9E0B1
:1000D00002C005900D92A431B107D9F721E0A4E147
:1000E000B1E001C01D92A73CB207E1F710E0CDE5F9
:1000F000D0E004C02197FE010E948104CC35D107D5
:10010000C9F70E94EE020C9487040C94000061E091
:100110008DE00E94F40340E855E260E070E084E185
:1001200091E00C94C50160E071E084E191E00E94EF
:10013000DC0261E08DE00E94300468EE73E080E054
:1001400090E00E946A0360E08DE00E94300468EE57
:1001500073E080E090E00C946A03FC01248535850F
:10016000F901E05CFF4F80819181329620813181DD
:10017000821B930B8F7399270895DC011C96ED91D8
:10018000FC911D97DF01A05CBF4F2D913C91119711
:1001900012968D919C9111972817390739F08D91FE
:1001A0009C91E80FF91F808190E008958FEF9FEFF9
:1001B0000895FC01A485B585FD01E05CFF4F208119
:1001C00031813296808191812817390779F08081B9
:1001D0009181A80FB91F8C91208131812F5F3F4FF2
:1001E0002F7333273183208390E008958FEF9FEFA3
:1001F0000895FC0181A1882329F0A489B5898C91F7
:1002000086FFFBCF11A208950F931F93CF93DF9327
:10021000FC01A685B7858D01005C1F4FE801888130
:10022000998101968F739927AD014E5B5F4FEA016B
:100230002881398128173907D1F3E80128813981CC
:10024000A20FB31F6C93A685B785A05CBF4F119614
:100250009C938E93A689B7892C9181E090E0078CBE
:1002600002C0880F991F0A94E2F7822B8C9381E0D9
:1002700081A30488F589E02D80818064808381E0FA
:1002800090E0DF91CF911F910F91089508951F92F3
:100290000F920FB60F9211242F934F935F938F936A
:1002A0009F93EF93FF938091C00082FD1CC020912B
:1002B000C6008091BA019091BB014091BC01509160
:1002C000BD0101968F7399274817590771F0E09186
:1002D000BA01F091BB01E658FE4F20839093BB0119
:1002E0008093BA0102C08091C600FF91EF919F9167
:1002F0008F915F914F912F910F900FBE0F901F9094
:10030000189584E191E00E94AD00892B11F00C94C6
:10031000460108951F920F920FB60F9211242F934A
:100320003F938F939F93EF93FF93209176013091AA
:10033000770180917801909179012817390731F47C
:100340008091C1008F7D8093C10014C0E09178013D
:10035000F0917901EA5CFE4F2081809178019091C3
:10036000790101968F739927909379018093780191
:100370002093C600FF91EF919F918F913F912F9114
:100380000F900FBE0F901F901895CF92DF92EF92B3
:10039000FF92CF93DF93EC016A017B014115514E2F
:1003A0006105710509F1EC89FD8981E090E008A003
:1003B00002C0880F991F0A94E2F7808360E079E019
:1003C0008DE390E0A70196010E945F04DA01C90164
:1003D0000197A109B109B695A795979587959C01B5
:1003E000211580E13807A8F0EC89FD89108260E8CA
:1003F00074E88EE190E0A70196010E945F04DA01A3
:10040000C9010197A109B109B695A7959795879557
:100410009C01E889F9893083EA89FB89208319A244
:10042000EE89FF89408181E090E09C010C8C02C044
:10043000220F331F0A94E2F7242B2083EE89FF89D1
:1004400040819C010D8C02C0220F331F0A94E2F7F9
:10045000242B2083EE89FF8940819C010E8C02C0F1
:10046000220F331F0A94E2F7242B2083EE89FF89A1
:1004700020810F8C02C0880F991F0A94E2F78095A3
:1004800082238083DF91CF91FF90EF90DF90CF9018
:100490000895E4E1F1E01382128288EE93E0A0E097
:1004A000B0E084839583A683B78387E091E091834E
:1004B00080838AE791E09587848786E391E0978738
:1004C000868785EC90E0918B808B84EC90E0938B19
:1004D000828B80EC90E0958B848B81EC90E0978B05
:1004E000868B82EC90E0918F808F86EC90E0938FEA
:1004F000828F84E0848F83E0858F87E0868F85E01C
:10050000878F81E080A30895CF92DF92EF92FF92D0
:100510000F931F93CF93DF936C01EB017B01E40EEC
:10052000F51E00E010E0CE15DF0561F06991D601FF
:10053000ED91FC910190F081E02DC6010995080F25
:10054000191FF1CFC801DF91CF911F910F91FF903B
:10055000EF90DF90CF9008956115710579F0FB0160
:1005600001900020E9F73197AF01461B570BDC01E2
:10057000ED91FC910280F381E02D099480E090E000
:100580000895DC01ED91FC910190F081E02D09943A
:100590000F931F93CF93DF93EC016DE00E94C10294
:1005A0008C016AE0CE010E94C102800F911FDF9191
:1005B000CF911F910F9108950F931F93CF93DF93C6
:1005C000EC010E94AC028C01CE010E94C802800F97
:1005D000911FDF91CF911F910F9108950E94900379
:1005E0000E948700C1E8D1E00E9493002097E1F3C8
:1005F0000E948101F9CF1F920F920FB60F92112422
:100600002F933F938F939F93AF93BF938091BF019D
:100610009091C001A091C101B091C2013091BE0181
:1006200023E0230F2D3720F40196A11DB11D05C035
:1006300026E8230F0296A11DB11D2093BE018093D1
:10064000BF019093C001A093C101B093C2018091FA
:10065000C3019091C401A091C501B091C60101965A
:10066000A11DB11D8093C3019093C401A093C50146
:10067000B093C601BF91AF919F918F913F912F9100
:100680000F900FBE0F901F9018953FB7F894809170
:10069000C3019091C401A091C501B091C60126B5D6
:1006A000A89B05C02F3F19F00196A11DB11D3FBFAA
:1006B000BA2FA92F982F8827820F911DA11DB11D38
:1006C000BC01CD0142E0660F771F881F991F4A9534
:1006D000D1F70895CF92DF92EF92FF92CF93DF93FD
:1006E0006B017C010E944503EB01C114D104E104BC
:1006F000F10479F00E9445036C1B7D0B683E73404A
:10070000A0F381E0C81AD108E108F108C851DC4F14
:10071000ECCFDF91CF91FF90EF90DF90CF900895D5
:10072000789484B5826084BD84B5816084BD85B5CC
:10073000826085BD85B5816085BDEEE6F0E0808193
:1007400081608083E1E8F0E01082808182608083B4
:10075000808181608083E0E8F0E080818160808337
:10076000E1EBF0E0808184608083E0EBF0E0808169
:1007700081608083EAE7F0E080818460808380810B
:1007800082608083808181608083808180688083B3
:100790001092C1000895833081F028F4813099F0DF
:1007A0008230A1F008958630A9F08730B9F0843006
:1007B000D1F4809180008F7D03C0809180008F777D
:1007C00080938000089584B58F7702C084B58F7DB3
:1007D00084BD08958091B0008F7703C08091B000F0
:1007E0008F7D8093B0000895CF93DF9390E0FC015C
:1007F000E458FF4F2491FC01E057FF4F8491882378
:1008000061F190E0880F991FFC01E255FF4FC591FF
:10081000D491FC01EC55FF4FA591B491611109C031
:100820009FB7F8948881209582238883EC912E23AA
:100830000BC0623061F49FB7F8948881322F3095F5
:1008400083238883EC912E2B2C939FBF06C08FB7F8
:10085000F894E8812E2B28838FBFDF91CF910895E4
:100860001F93CF93DF93282F30E0F901E859FF4F12
:100870008491F901E458FF4FD491F901E057FF4FFB
:10088000C491CC23C1F0162F81110E94CB03EC2F11
:10089000F0E0EE0FFF1FEC55FF4FA591B4919FB70D
:1008A000F894111104C08C91D095D82302C0EC911A
:1008B000DE2BDC939FBFDF91CF911F910895A1E2C2
:1008C0001A2EAA1BBB1BFD010DC0AA1FBB1FEE1FCA
:1008D000FF1FA217B307E407F50720F0A21BB30B15
:1008E000E40BF50B661F771F881F991F1A9469F791
:1008F00060957095809590959B01AC01BD01CF01ED
:100900000895EE0FFF1F0590F491E02D0994F894DF
:02091000FFCF17
:100912004869000000000004018402AD00D900BD56
:0409220000F90000D8
:00000001FF
